:100000000C9462040C947F040C947F040C947F0481
:100010000C947F040C947F040C947F040C947F0454
:100020000C947F040C947F040C9473230C9445244B
:100030000C94DB1B0C947F040C947F040C947F04C1
:100040000C947F040C947F040C947F040C947F0424
:100050000C947F040C94431C0C947F040C947F0438
:100060000C947F040C947F040C947F040C947F0404
:100070000C947F040C947F040C947F040C947F04F4
:100080000C947F040C947F040C947F040C947F04E4
:100090000C947F040C947F040C947F040C947F04D4
:1000A0000C947F040C947F040C947F04D704DA042E
:1000B000DD04E004E304E604E90405080A08140882
:1000C00008080D08120810086E0970097B097209EA
:1000D0007409760978097A097D097F0981098C09F3
:1000E00083098509870989098B098E090711071179
:1000F0003911391170119011F9125713D211571388
:100100007F127F12F0125713571351138C128C1257
:100110008C128C128C128C128C128C128C128C12EF
:100120008C128C128C128C128C128C129D12AA12B0
:10013000B112B812C212E213E213F413F413EB1368
:10014000F413F413F413E213E213F013F413F4139F
:10015000F013B224D924CB25D924CB252525482535
:10016000CB259E25AD256572676F646F785F657AD4
:100170002F62623530346231393631356230663360
:100180003639343933204020302E362E3237332D55
:1001900031362D676234653462652D646972747915
:1001A000000000F0A129462B00E400E100F400006B
:1001B000001E41140004001D61E30023081F421AC1
:1001C0000016001B00E3001303204308000700068D
:1001D0000000040045210015000900190000042258
:1001E00008220017000A00050000001E0835004B19
:1001F0001100004E11000021084900010000002AF2
:100200000000004C0023001C000B001100000052F5
:1002100000240018000D0010002C00500025000CD8
:10022000000E0036004B004F00260012000F003772
:10023000004E00510027001300334465004A005867
:10024000002A004C0028004A004D00000001000177
:100250000001000100010000000100010001000197
:100260000001000100010001000100010001000186
:100270000001000100010001000100010001000176
:100280000001000100010001000100010001000166
:100290000000000100010001000000010000000159
:1002A0000001000100000001000000010001000148
:1002B000000100010000000F050100010001000124
:1002C0000001004F06010001000100010001005083
:1002D00006010001000100010001000F0101000101
:1002E0000001000100010001000100010001000106
:1002F00000010000000100010001000100010000F8
:1003000000010001000100010001000100010001E5
:1003100000010001000100010001000100010001D5
:1003200000010001000100010001000100010001C5
:1003300000010001000100010000000100010001B6
:1003400000000001000000010001000100000001A8
:100350000000000100010001005F006100000001D9
:100360000024005C001E00610062002A0325005D7D
:10037000001F00010001004C0326002300200001A3
:100380000001000E030100010060000100010001F6
:100390000001000100010001000100000001000156
:1003A0000001000100010000000100010001000146
:1003B0000001000100010001000100010001000135
:1003C0000001000100010001000100010001000125
:1003D0000001000100010001000100010001000115
:1003E0000000000100010001000000010000000108
:1003F00000010001000000010000000100010001F7
:10040000000100010000005207010001000100018D
:100410000001002F01010001000100010001003076
:10042000010100010001000100010051070100016C
:1004300000010001000100010001000100010001B4
:100440000001000000350201000100010001000070
:10045000001E0201002F022D02010001001F0222D6
:1004600002300257000100010020022F002E003848
:10047000000100010021023000560031000100019E
:1004800000220231023802010000000100010001D7
:100490000000000100000001000100010000000157
:1004A00000000001000100230224025500000001A9
:1004B0000001002F00260255000100010001003458
:1004C0000234000100010001000100300027020198
:1004D0000001000100010001000100010001000114
:1004E0000001000100010001000100000001000105
:1004F0000001000100010000003A000100010001BC
:1005000000010001003B00010001000100010001A9
:10051000003C00010001000100010001003D00015C
:100520000001000100130301003E00010001000171
:1005300000000001000100010000000100000001B6
:10054000000100010000000100000001003F000167
:100550000001000100000001004000010001000155
:100560000001000100410001000100010001000143
:1005700000420001000100010001000100430001F0
:100580000001000100010001000100010001000163
:1005900000010000000100A80001000100010000AE
:1005A00000AA0001000100010001000100A90001F2
:1005B0000001000100010001000100010001000133
:1005C0000001000100010001000100010001000123
:1005D00000010001000100010000000100A800016D
:1005E0000000000100000001000100010000000106
:1005F00000000001000100010001000100000001F5
:1006000000010001000100010001000100010001E2
:1006100000010001000100010001000100010001D2
:1006200000010001000100010001000100010001C2
:1006300000010001000100010001000000000000B5
:1006400000000000002A2B2800000000000000002D
:10065000000000000000000029000000002C1E34F3
:1006600020212224342627252E362D3738271E1FF9
:10067000202122232425263333362E37381F040524
:10068000060708090A0B0C0D0E0F10111213141592
:10069000161718191A1B1C1D2F3130232D35040570
:1006A000060708090A0B0C0D0E0F10111213141572
:1006B000161718191A1B1C1D2F3130354C0000005D
:1006C000000000000000000000000000000000002A
:1006D0000000000000000000000000000000010118
:1006E0000101010100010101010000000000000002
:1006F00000000000000000010001000101010101F3
:1007000001010101010101010101010101010101D9
:1007100001010101010101010000000101000000CF
:1007200000000000000000000000000000000000C9
:10073000000000000000000001010101000403307E
:1007400000000016034500720067006F0044006F50
:10075000007800200045005A000000160345007292
:100760000067006F0044006F007800200045005AC9
:100770000000000403090409023B00020100A0FA82
:1007800009040000010301010009211101000122F7
:1007900040000705810308000A0904010001030065
:1007A000000009211101000122C000070582032079
:1007B000000A1201100100000008EDFE07130100FD
:1007C0000102030105010902A10185020901A1003D
:1007D00005091901290515002501950575018102F5
:1007E0009501750381010501093009311581257FC6
:1007F00095027508810609381581257F95017508D0
:100800008106050C0A38021581257F95017508813E
:1008100006C0C005010980A1018503160100260359
:10082000001A81002A8300751095018100C0050C13
:100830000901A1018504160100269C021A01002A63
:100840009C02751095018100C005010906A1018572
:1008500005050719E029E7150025019508750181AF
:100860000205081901290595057501910295017583
:100870000391010507190029EF1500250195F07571
:10088000018102C005010906A101050719E029E758
:1008900015002501950875018102950175088101F2
:1008A0000508190129059505750191029501750342
:1008B00091010507190029FF150026FF009506750F
:1008C000088100C011241FBECFEFDAE0DEBFCDBF2C
:1008D00011E0A0E0B1E0E2EEFCE402C005900D9270
:1008E000AC3BB107D9F723E0ACEBB1E001C01D92FE
:1008F000A134B207E1F70E9497200C946F260C9464
:10090000000080B38C7080BB81B3836F81BB08957E
:1009100084B1807F84B985B1807F85B98AB1837FB6
:100920008AB98BB1837F8BB93E9846980895CF934F
:10093000E82F873090F58091000190910101892B7B
:1009400009F049C0CE2F64E670E080E40E941806EA
:100950009093010180930001892BD1F464E670E04B
:1009600082E10E946F069093010180930001892B20
:1009700079F481E090E001C0880FCA95EAF764E657
:1009800070E080950E946F069093010180930001B2
:1009900084E690E0CF910C94C40690E0FC01379778
:1009A000E730F105C0F4EA5AFF4F0C941326209A61
:1009B000289811C0219A29980EC0229A2A980BC013
:1009C000239A2B9808C0529A5A9805C0539A5B985C
:1009D00002C03E9A4698CF910895089508950C94C8
:1009E000EE04CF93DF930E94560790E090930101AD
:1009F000809300010E9488040E948104A1E1B2E07A
:100A00002DEB31E0EFE1F2E04EE04E0F11921D923E
:100A100080E090E0E901C80FD91F18820196863066
:100A20009105C1F72A5F3F4F4E13F0CFDF91CF9171
:100A30000C947D080E94560790E0909301018093EA
:100A400000010E9488040E948104EFE1F2E08EE040
:100A50008E0F11928E13FDCF0895CF93DF93E62F63
:100A6000F0E0EF5EFD4F40814827808386E0689F7D
:100A7000F0011124E354FE4F20E030E080E061E01B
:100A800070E050E0AAE0B22F9081992319F09150C4
:100A9000908307C0EB01022E01C0CC0F0A94EAF745
:100AA0008C2BEA0102C0D595C795BA95E2F7C0FD37
:100AB000A0832F5F3F4F31962630310521F7DF911C
:100AC000CF910895CF93DF93D82F873008F040C09F
:100AD0008091000190910101892B09F042C064E6E8
:100AE00070E080E40E941806909301018093000159
:100AF000892B11F0C0E027C064E670E083E10E941A
:100B00006F069093010180930001892B99F764E6A9
:100B100070E081E40E941806909301018093000127
:100B2000892B41F784E690E00E949F0697FF05C05D
:100B30009093010180930001DDCFC82FC0951092E2
:100B400001011092000184E690E00E94C4060AC0F0
:100B50009FB1CFB1C07FC695C6959370C92BC09584
:100B600001C0C0E06D2F8C2F0E942D05282F2095ED
:100B7000ED2FF0E0E15EFD4F908192238C23892BD5
:100B8000DF91CF910895EF92FF920F931F93CF9330
:100B9000DF938091000190910101892B91F0809168
:100BA000BC018F5F8093BC0181110BC00E9456076E
:100BB00090E09093010180930001892B11F40E9431
:100BC000E8068FE1E82E82E0F82E06E212E0C0E0AF
:100BD0008C2F0E949704D7E0DC0F8D2F0E94970482
:100BE0008C2F0E946205F70181937F018D2F0E9457
:100BF0006205F80181938F010E948804CF5FC7309E
:100C000039F70E94870881E0DF91CF911F910F9102
:100C1000FF90EF900895E82FF0E0E15EFD4F8081B6
:100C2000089508951092B9008CE08093B80008955B
:100C3000EF92FF920F931F93CF93DF93182FEB0147
:100C40001092BC0084EA8093BC000E940D1C7C01C1
:100C50009091BC0097FD0EC0CF3F8FEFD807C1F336
:100C60000E940D1C8E199F098C179D0788F38EEF2B
:100C70009FEF2EC09091B900987F983041F09091ED
:100C8000B900987F903119F08FEF9FEF21C010933A
:100C9000BB0084E88093BC000E940D1C8C019091E5
:100CA000BC0097FD0CC0CF3F8FEFD807C1F30E9467
:100CB0000D1C801B910B8C179D0788F3D8CF80915A
:100CC000B900887F883111F08034F1F680E090E03F
:100CD000DF91CF911F910F91FF90EF9008950F93A7
:100CE0001F93CF93DF93EB018093BB0084E8809345
:100CF000BC000E940D1C8C019091BC0097FD0EC0A1
:100D0000CF3F8FEFD807C1F30E940D1C801B910BC2
:100D10008C179D0788F38EEF9FEF0CC02091B900D0
:100D2000287F81E090E0283211F480E090E09195F6
:100D300081959109DF91CF911F910F9108950F93A4
:100D40001F93CF93DF93EC0184E88093BC000E9453
:100D50000D1C8C019091BC0097FD0EC0CF3F8FEF12
:100D6000D807C1F30E940D1C801B910B8C179D07A7
:100D700088F38EEF9FEF03C08091BB0090E0DF917E
:100D8000CF911F910F9108950F931F93CF93DF93EE
:100D9000EC0184E98093BC000E940D1C8C019091B1
:100DA000BC0094FF0EC0CF3F8FEFD807C1F30E9465
:100DB0000D1C801B910B8C179D0788F38EEF9FEF06
:100DC00002C080E090E0DF91CF911F910F910895D4
:100DD00056985E9825982D9826982E9827982F98A3
:100DE0008FEF90E0909389008093880090938B0020
:100DF00080938A0090938D0080938C00259A2D9A81
:100E00002FEF80E792E0215080409040E1F700C052
:100E10000000269A2E9A2FEF80E792E02150804022
:100E20009040E1F700C00000279A2F9A2FEF80E74B
:100E300092E0215080409040E1F700C000002598EA
:100E40002D982FEF80E792E0215080409040E1F70D
:100E500000C0000026982E982FEF80E792E02150E6
:100E600080409040E1F700C0000027982F985698E6
:100E70005E9825982D9826982E9827982F98089553
:100E800089EA8093800089E08093810024982C98DF
:100E90003F988AB18F7C8AB96E98479A8BB18063EC
:100EA0008BB9769A0E94E8060C94ED0480E290E0FB
:100EB000909301018093000180912D0281110EC059
:100EC0000E94120681E080932D022FEF83ED90E3C4
:100ED000215080409040E1F700C0000064E670E0DF
:100EE00080E40E9418069093010180930001892BF1
:100EF00009F050C064E670E080E00E946F069093B5
:100F0000010180930001892B09F044C064E670E080
:100F100080E00E946F069093010180930001892B6D
:100F2000C9F564E670E08FE30E946F0690930101BB
:100F300080930001892B71F584E690E00E94C4063D
:100F400064E670E080E40E941806909301018093AB
:100F50000001892BF9F464E670E08CE00E946F06D2
:100F60009093010180930001892BA1F464E670E065
:100F700080E00E946F069093010180930001892B0D
:100F800049F464E670E08FE30E946F0690930101DC
:100F90008093000184E690E00E94C40680910001E5
:100FA0000895611108C0FC018281882321F086E642
:100FB00091E00E947A0880E090E00895863E9C458A
:100FC00041F4FB018281882329F00E94F91A80E014
:100FD000089581E00895CF92DF92EF92FF926B0126
:100FE0007C010E943B1A56985E9825982D98269869
:100FF0002E9827982F9890E0FC013197E730F10563
:10100000A8F4E35AFF4F0C941326259A2D9A0EC08C
:10101000259A2D9A269A2E9A09C0259A2D9A04C0AF
:10102000259A2D9A269A2E9A279A2F9AC701B601A9
:10103000FF90EF90DF90CF90089581E008950C9499
:10104000DE07CF93282F30E0F901E35CF94FC4911C
:10105000F901E354F94F2491222359F081EE0E94C3
:10106000370F8C2F0E94370F8C2F0E94551081EE66
:1010700004C08C2F0E94370F8C2FCF910C945510E9
:101080000F931F93CF93DF93EC01062FFE01849102
:10109000882359F19E012F5F3F4F813041F4E901D0
:1010A000F9011491812F0E94370F812F0DC08230DA
:1010B00031F4E901F90184910E94370F0AC08330AD
:1010C00031F4E901F90184910E94551002C00E9497
:1010D00021082196802F8823C9F2EFE9FFE031979C
:1010E000F1F700C000008150F6CFDF91CF911F9142
:1010F0000F91089560E00C9440080E948B1A8111B2
:1011000002C00E94F91A0E94DB0C0C9440070C9458
:10111000EF04282F2F7041F0822F90E02A3010F436
:101120004D9608950697089587E290E008950895F2
:101130000C9497080C94980808950E94D2130E946A
:101140009C082FEF84E39CE0215080409040E1F721
:1011500000C000000C94691CFF920F931F93CF9363
:10116000DF938C01FC01C081D181809159028111F2
:1011700013C08281882349F0CE010E940819F82EFD
:10118000682FCE010E94AB1804C0CE010E94DB186C
:10119000F82EBE018F2D04C0CE010E940819BE0199
:1011A0000E94450AEC01B8010E941F08882309F437
:1011B00064C1B801CE010E94560D882309F45DC1B7
:1011C000C63DFCE5DF0761F5F8018281882351F017
:1011D000109233020E940D1C9093300280932F02D4
:1011E00082E03BC00E94881985FF05C081E08093A2
:1011F0003302809334028091330281110FC08091B9
:101200002F02909130020E94191C883C910530F405
:1012100086E20E94370F86E20E94551082E02FC0BE
:10122000C73D8CE5D80770F1CB3D8CE5D80709F4B4
:10123000D6C008F0DBC0C73DFCE5DF0709F0F4C00D
:10124000F8018281882361F0109234020E940D1C03
:10125000909332028093310280E20E94C5100DC14A
:101260000E94881981FF05C081E08093330280933A
:10127000340280913402882309F4C5C080E20E94C0
:10128000CC10FBC0C531ECE5DE0708F07EC0C230F3
:10129000FCE5DF0708F452C0F8018281882309F4D5
:1012A00059C00E948B1A811102C00E94F91A0E9433
:1012B0009E1A90E09093330380933203FE01E35033
:1012C000FC45E231F10530F4EC59FF4F80913203D7
:1012D0000C94132680913203816027C0826025C060
:1012E000846023C0806121C080621FC080641DC0F3
:1012F00080681BC08460886018C08E7F16C08D7F98
:1013000014C08B7F12C08F7E10C08F7D0EC08F7B6C
:101310000CC08F770AC08B7F877F07C087FB22278F
:1013200020F991E0922790FB87F980933203809116
:1013300032030E94A21A0E94D2139FC0C1158CE5ED
:10134000D80781F0C130DC45A9F081E080933302F9
:1013500080933402C801DF91CF911F910F91FF90CC
:101360000C941D08F8018281882309F486C00E942C
:101370009D0883C0F8018281882309F47EC0809192
:10138000F80281608093F80278C0C631DC45E9F646
:101390000E948819282FF801828140910201509102
:1013A0000301882379F02A7A91E009F490E0909380
:1013B0002E02911102C069E201C065E3CA010E94D8
:1013C000601B0AC080912E02811102C069E201C037
:1013D00065E3CA010E946B1B0E94D7194EC0F80139
:1013E0008281882309F449C080E00AC0CC3DECE545
:1013F000DE07D1F5F8018281882309F43EC082E03E
:101400000E9436213AC080913102909132020E94AE
:10141000191C883C910508F031CF87E20E94370FF4
:1014200087E20E9455102ACFC83DDC4509F08DCFD8
:10143000F8018281811108CF8091340281111ECF81
:1014400080913102909132020E94191C883C9105D2
:1014500008F014CF80E20E94CC1088E20E94370F7F
:1014600088E20E94551009C0CD3DDC4509F06DCFE2
:10147000F801828181110E94F91A80E0DF91CF91F9
:101480001F910F91FF900895089596E0799FF001C4
:10149000112494E5899FE00DF11D1124E60FF11D43
:1014A000EE0FFF1FEB55FE4F859194910895880F25
:1014B000991FFC01EF55FE4F859194910895CF93AC
:1014C000DF930E94450A0E94240CEC01811520E55F
:1014D0009207F0F5811530E4930708F029C1883EA2
:1014E000910500F5803E910508F0AAC1883A910562
:1014F00070F4853A910508F0A4C08130910509F493
:101500009FC108F450C1049708F09AC14CC18F3BA9
:10151000910508F4A1C0803C910508F444C1805CA9
:101520009109F9C0811540E2940758F4C11581E092
:10153000D80708F085C1C03FD10508F434C1D06593
:101540007FC1811520E3920708F0E9C09F70E3C0D6
:10155000811535E5930708F044C0811544E59407EB
:1015600008F0FDC0C11582E5D80708F5C11521E5D1
:10157000D20708F0E0C08C2F837021E030E002C079
:10158000220F331F8A95E2F73C68CE0174E09695EE
:1015900087957A95E1F78370382BCF70C695C695FD
:1015A00040E2C49FE0011124C22BD32B49C12C2F50
:1015B00026952695CE0183709927C115D34508F04D
:1015C000BFC040E2249F90011124C1E0D0E002C0DE
:1015D000CC0FDD1F8A95E2F72C2B3D2BE901DC684F
:1015E0002FC181154AE59407A0F4C11589E5D807F4
:1015F00008F0C4C0C11526E5D20708F4B5C0C1156E
:1016000038E5D30708F4CFC0DC2FCC27C06FD06AF1
:1016100017C181159B4508F4C6C0C1158CE5D807D4
:1016200008F4BEC0CE0190568115904208F0BBC0B0
:101630008D2F8F710E94A10CDD27D0628F71D82B66
:10164000FFC0853A910509F4B1C0863A910509F0C9
:10165000B0C0C2E8D0E4F4C0883A910509F4ACC047
:10166000893A910509F4ABC08A3A910509F4AAC0F8
:101670008B3A910509F4A9C08C3A910509F4A8C0E8
:101680008B3B910509F4A7C08C3B910509F4A6C0DA
:101690008D3A910509F4A5C0803B910509F4A4C0D9
:1016A0008E3A910509F4A3C08F3A910509F4A2C0BE
:1016B000813B910509F4A1C0823B910509F4A0C0CA
:1016C000833B910509F49FC0843B910509F49EC0BA
:1016D000853B910509F49DC0863B910509F49CC0AA
:1016E000873B910509F49BC0883B910509F49AC09A
:1016F000893B910509F499C08D3B910509F498C087
:101700008E3B910509F497C08A3B910509F496C078
:10171000C0E0D4E495C00E94570AEC0191C099271B
:10172000D3FF03C0EC01D86C8BC0EC01D06C88C037
:10173000DF70D06A85C0DC2FCC27C16FD06A80C033
:1017400040E2249F90011124C1E0D0E002C0CC0F00
:10175000DD1F8A95E2F7C22BD32BDA6871C0D82F30
:10176000CC27C46FD06A6CC08C2F0E94A10C8F71E3
:10177000C82FD0E0DC2FCC27D06262C08C2F8F70B6
:101780000E94A10C94E0D695C7959A95E1F7CF7089
:10179000D0E0DC2FCC27D06A8F70806EC82B50C071
:1017A000DD27D0664DC0C0E0D0E04AC0C1E8D0E43B
:1017B00047C0C3E8D0E444C0C2EED4E441C0C9EE9F
:1017C000D4E43EC0CAEED4E43BC0C5EBD4E438C098
:1017D000C6EBD4E435C0C3EBD4E432C0C4EBD4E4EC
:1017E0002FC0C7EBD4E42CC0CCECD4E429C0CDECA2
:1017F000D4E426C0C3E8D5E423C0CAE8D5E420C0B9
:10180000C2E9D5E41DC0C4E9D5E41AC0C1E2D6E4FA
:1018100017C0C3E2D6E414C0C4E2D6E411C0C5E2E6
:10182000D6E40EC0C6E2D6E40BC0C7E2D6E408C0D8
:10183000CFE6D4E405C0C0E7D4E402C0CAE2D6E4EF
:10184000CE01DF91CF9108958238910549F1B0F42E
:101850008133910509F458C048F48932910509F49F
:101860004EC08A32910509F454C00895853391051C
:1018700009F440C08933910599F00895833E91059C
:1018800029F138F4803E910591F0823E9105A1F056
:101890000895863E9105F9F0873E910531F108954E
:1018A0002091320320FD3AC021FD38C00895809177
:1018B000320380FD35C032C08091320382FF32C0D6
:1018C0008091320384FD30C083EE39C080913203B1
:1018D00082FD28C0F5CF8091320383FF27C080911D
:1018E000320384FD21C087EE2AC08091320383FD3C
:1018F0001DC0F5CF8091320385FD1AC01BC08091B9
:10190000320385FD17C014C08091320386FD14C0D8
:1019100015C08091320386FD11C00EC080EE0FC04D
:1019200089E30DC082EE0BC080E009C086EE07C0DF
:1019300089E205C085E303C08AE201C081E390E04B
:1019400008959091320392FF0DC0282F28712830FE
:1019500019F4877F846006C0282F2471243011F485
:101960008B7F886093FF0DC0282F2871283119F4D0
:10197000877E846106C0282F2471243111F48B7E68
:10198000886194FD877E0895CF93DF93813020E8AE
:10199000920768F0FB012281222349F0EC010E94AA
:1019A000F10CCE019F770E94390D0E94260D81E037
:1019B000DF91CF9108958CE090E00E942D2690E079
:1019C000A0E0B0E08093280390932903A0932A031A
:1019D000B0932B030895609128038CE090E00C9461
:1019E0003B260E948819809335020E949B198091A2
:1019F0002803813071F048F08230D9F08430F9F456
:101A000086EE0E94BD1088E118C082EE0E94370F5A
:101A100016C080EE0E94370F81EE0E94370F88E1DA
:101A20000E94BD1081EE0E94551080EE0E9455105C
:101A300006C082EE0E94370F87E50E94BD108FE33B
:101A40009CE90197F1F700C00000089580912803F8
:101A5000813021F038F0823029F007C08CE20E94FA
:101A6000BD1003C082EE0E945510809135020C9487
:101A700098190F931F93CF93DF938C01CCE0D0E0A4
:101A8000C8010C2E02C0969587950A94E2F78F70D4
:101A90000E9489080E94BD102497CC3F8FEFD80781
:101AA00079F7DF91CF911F910F9108950F931F93B5
:101AB000CF93DF93EC018B01FB018281882319F125
:101AC000C23EFCE5DF07C1F050F4C03EECE5DE07A6
:101AD00081F0C13EFCE5DF07B1F481E010C0C33EF8
:101AE0008CE5D80759F0C43EECE5DE0761F484E0EC
:101AF00006C01092280305C082E001C083E08093F5
:101B000028030E94EB0CB801CE01DF91CF911F9109
:101B10000F910C94C40C90933B0280933A02089569
:101B2000E0913A02F0913B02309721F00190F08170
:101B3000E02D099480E00895E0913A02F0913B0293
:101B4000309799F020911301222359F0209132030C
:101B500027FF07C0DC012C9111962C93119725E0EB
:101B60002C930280F381E02D09940895E0913A02CC
:101B7000F0913B02309739F022E0DC012C93048095
:101B8000F581E02D099408952091380230913902B1
:101B90008217930771F09093390280933802E09195
:101BA0003A02F0913B02309721F00680F781E02D58
:101BB00009940895209136023091370282179307D5
:101BC00071F09093370280933602E0913A02F091DF
:101BD0003B02309721F00084F185E02D09940895AF
:101BE00085B7806885BF85B7806885BF08950895EB
:101BF0000E94F00D0C94F70D81E008950E94041CE2
:101C00000E94F1040C949B1CCF92DF92EF92FF9202
:101C10000F931F93CF93DF93CDB7DEB72B970FB6FC
:101C2000F894DEBF0FBECDBF0E94C3050E94FC0D1D
:101C3000811111C08FEF89838A831B820E940D1C42
:101C40008160782F9D838C8349815A816B818D813E
:101C50000E94E80E56C08DE3C82E82E0D82E00E028
:101C600010E0E02E802F0E940B06F60141916F01DB
:101C7000F42EF82631F40F5F1F4F0E30110589F74F
:101C8000D9CF9091F80291FF04C08B870E94110672
:101C90008B8520E030E04F2D50E0922FBA01022ECC
:101CA00002C0759567950A94E2F760FF24C02E8301
:101CB000EF8221E030E0690102C0CC0CDD1C9A9576
:101CC000E2F790E08C219D21892B09F420E0288700
:101CD0000E940D1C8160782F9A8789874E815F81D1
:101CE00068858A850E94E80EF801E35CFD4F8081DB
:101CF000C826C08206C02F5F3F4F2630310569F6E7
:101D0000BACF0E942E1E10913C020E94900D18170F
:101D1000A1F00E94900D80933C022B960FB6F89490
:101D2000DEBF0FBECDBFDF91CF911F910F91FF900E
:101D3000EF90DF90CF900C949A082B960FB6F89402
:101D4000DEBF0FBECDBFDF91CF911F910F91FF90EE
:101D5000EF90DF90CF900895DC0111962C911197B0
:101D60008C91682F70E041E050E001C0440F8A95EB
:101D7000EAF712968C91129730E0882329F080912F
:101D80005B028823E9F006C0F901E55BFD4F908115
:101D90009423B1F086E0829FF001839FF00D11241F
:101DA000E60FF71FEE0FFF1FEC5EFE4F8081918163
:101DB0008D939C93F901E55BFD4F8081482B06C014
:101DC000F901E55BFD4F40958081482340830895EC
:101DD000CF93DF93CDB7DEB72B970FB6F894DEBF66
:101DE0000FBECDBF942F4F83252F588769877A87E1
:101DF0008B874A855B85452B21F02F3F09F59F3F57
:101E0000F9F4DE01119686E0FD0111928A95E9F759
:101E100085E0FE01379601900D928A95E1F74981A0
:101E20005A816B817C818D819E810E947C162B96CC
:101E30000FB6F894DEBF0FBECDBFDF91CF910895EE
:101E4000CE0107960E94AC0EDCCFFC01808191810F
:101E50000E94491992959F70963041F480915B02DF
:101E600091E0892780935B0290935A02089588231A
:101E700009F41AC18238C1F40E94900D81FD14C189
:101E800069E380910201909103010E94601B0E940E
:101E9000D7192FEF81EE94E0215080409040E1F778
:101EA00000C0000069E319C08338F9F40E94900D66
:101EB00080FDFAC063E580910201909103010E94C8
:101EC000601B0E94D7192FEF81EE94E021508040D3
:101ED0009040E1F700C0000063E58091020190911D
:101EE00003010E946B1B0C94D7198438C1F40E9423
:101EF000900D82FDD9C067E48091020190910301A9
:101F00000E94601B0E94D7192FEF81EE94E02150B0
:101F100080409040E1F700C0000067E4DECF9CEF16
:101F2000980F913A40F4682F80910201909103013B
:101F30000E94601BD8CF90E2980F983050F48770C1
:101F400091E001C0990F8A95EAF7892F0E948B19B9
:101F5000CACF9BE5980F933070F4853A29F0863A02
:101F600031F083E890E005C081E890E002C082E8AB
:101F700090E00C94C40D98E5980F973108F08EC04E
:101F8000883A09F445C0893A09F445C08A3A09F407
:101F900045C08B3A09F445C08C3A09F445C08B3BE7
:101FA00009F445C08C3B09F445C08D3A09F445C09D
:101FB000803B09F445C08E3A09F445C08F3A09F4D4
:101FC00045C0813B09F445C0823B09F445C0833BD1
:101FD00009F445C0843B09F445C0853B09F445C07C
:101FE000863B09F445C0873B09F445C0883B09F4AA
:101FF00045C0893B09F445C08D3B09F445C08E3B83
:1020000009F445C08A3B09F445C080E090E044C033
:1020100082EE90E041C089EE90E03EC08AEE90E012
:102020003BC085EB90E038C086EB90E035C083EB99
:1020300090E032C084EB90E02FC087EB90E02CC0A2
:102040008CEC90E029C08DEC90E026C083E891E014
:1020500023C08AE891E020C082E991E01DC084E9B4
:1020600091E01AC081E292E017C083E292E014C0CE
:1020700084E292E011C085E292E00EC086E292E036
:102080000BC087E292E008C08FE690E005C080E7D1
:1020900090E002C08AE292E00C94DA0D803F20F0DA
:1020A0000E94361D0C94231E0895882309F464C0F1
:1020B000823879F40E94900D81FF5EC069E38091BF
:1020C0000201909103010E94601B0E94D71969E3ED
:1020D00010C08338B1F40E94900D80FF4DC063E5BD
:1020E00080910201909103010E94601B0E94D71908
:1020F00063E580910201909103010E946B1B0C9497
:10210000D719843879F40E94900D82FF35C067E4B6
:1021100080910201909103010E94601B0E94D719D7
:1021200067E4E7CF9CEF980F913A10F4682FE1CF66
:1021300090E2980F983050F4877091E001C0990FA9
:102140008A95EAF7892F0E949119D9CF9BE5980FBC
:10215000933020F480E090E00C94C40D98E5980F43
:10216000973120F480E090E00C94DA0D803F20F06D
:102170000E949E1D0C94231E0895CF93C82F0E9489
:10218000370F8C2FCF910C945510882321F00E948B
:102190008B190C94D7190895882321F00E94911966
:1021A0000C94D71908958F929F92AF92BF92DF92AD
:1021B000EF92FF920F931F93CF93DF937C01D62F63
:1021C000C72FFC01058102950F70128111110E9429
:1021D000AB190E948119882379F0112369F080E2FC
:1021E0008D0F883048F082E00E94221A0E948119E7
:1021F00091E0D82ED92601C0D12CAC2EA2948FE02C
:10220000A822B12CF501EA58FF4F0C9413268C2F0D
:10221000807FCF70882311F0C295C07F112399F081
:10222000CC2309F4C8C180E28D0F883010F0D111A1
:1022300004C08C2F0E948B1903C08C2F0E949E1902
:102240000E94D719B8C18D2F0E945510CC2309F4D4
:102250002EC280E28D0F883010F0D11104C08C2F77
:102260000E94911903C08C2F0E94A4190E94D719B3
:102270001EC28C2F807FCF70803211F0C295C07F3C
:10228000DD2319F0D130C9F021C0112371F00023F2
:1022900041F0013031F40E94BE198C2B0E94C41908
:1022A00006C20E94BE198C2B3FC1002319F00130D9
:1022B00009F4FDC10E94CD1911C0112321F0023093
:1022C00008F0F5C107C00111F2C108C0112321F0C7
:1022D000011171C18C2F28C101117EC18C2F2AC11F
:1022E0008C2F86958695837090E0009719F0019762
:1022F00061F0DDC1112321F08D2F9C2F937002C05E
:1023000080E090E00E94C40DE2C1112321F08D2FE6
:102310009C2F937002C080E090E00E94DA0DD7C13C
:102320001123F9F0D53F51F0D63F71F0D43FA9F415
:1023300080912C0390912D0381600BC080912C0320
:1023400090912D03826005C080912C0390912D0304
:10235000846090932D0380932C038D2F0E94361D53
:102360001EC0D53F51F0D63F71F0D43FA9F4809103
:102370002C0390912D038E7F0BC080912C039091A4
:102380002D038D7F05C080912C0390912D038B7FB1
:1023900090932D0380932C038D2F0E949E1D0E94ED
:1023A000231E95C18C2F837009F050C011118BC171
:1023B0008D2F829586958770880F880F9D2F9F702F
:1023C000892E912CA12CB12C082E04C0880C991CAC
:1023D000AA1CBB1C0A94D2F7D4FF14C00FE010E073
:1023E00020E030E0B901A80104C0440F551F661F6A
:1023F000771F8A95D2F7CB01BA01609570958095C9
:10240000909503C060E070E0CB01C695C695C3709F
:10241000D0E0C230D10561F0C330D10581F0682928
:1024200079298A299B29219771F00E94C1174BC1F4
:10243000682979298A299B290E94D31744C10E94BF
:10244000C117C501B4010E94AF173DC1112319F096
:102450008C2F817001C08695882309F434C18D2F9B
:10246000829586958770880F880F9D2F9F70892E83
:10247000912CA12CB12C082E04C0880C991CAA1CEC
:10248000BB1C0A94D2F7D4FF14C00FE010E020E088
:1024900030E0B901A80104C0440F551F661F771F23
:1024A0008A95D2F7CB01BA01609570958095909589
:1024B00003C060E070E0CB01C695C695C3704C2F99
:1024C00050E04230510569F04330510589F06829E8
:1024D00079298A299B294130510571F00E9486187B
:1024E000F2C0682979298A299B290E949818EBC093
:1024F0000E948618C501B4010E947418E4C08D2F93
:1025000090E0FC01E05EF109E531F10508F04FC013
:10251000EA57FF4F0C941326DF708C2F8F71112315
:1025200031F00E940D188D2F0E94C510C0C00E946E
:102530002E188D2F0E94CC10BAC0112339F0011132
:10254000B6C08C2F8F710E945318B1C0023008F0B2
:10255000AEC0F7CF112339F08C2F8F710E940D1868
:10256000A6C01123C9F38C2F8F710E942E189FC013
:10257000112329F08C2F8F710E94F81798C00E94A8
:10258000F31795C0112349F0CF718C2F0E940D18BD
:1025900063E08C2F0E940D1A8AC081E00E94221AEB
:1025A000023008F484C082E00E94221A80C0112305
:1025B00031F0002389F28D2F0E94370F78C000235D
:1025C00091F2D93349F45FEF67EE73E05150604008
:1025D0007040E1F700C000008D2F0E94551067C0C9
:1025E0004C2F4F706D2FC7010E94D1070E942017FA
:1025F0006EC0D23FB1F028F4D03F49F0D13FF9F09E
:1026000028C0D43FB9F058F0D53F71F022C0112353
:1026100009F447C090915B0281E0892708C081E0FE
:10262000182710935B023DC011113BC081E08093DD
:102630005B0237C0111135C010925B0232C011230A
:1026400029F080915A02882329F329C0002311F32D
:1026500028C080915A020023C1F0882341F0909154
:102660005B0281E0892780935B0210925A028D2FD2
:10267000112319F00E94370F14C00E94551086E0F4
:10268000F70111928A95E9F70CC0882351F01111D6
:1026900008C090915B0281E0892780935B021092D1
:1026A0005A024C2F4F706D2FC7010E94440AF8E068
:1026B000AF16B10441F05CF04AE0A41AB10852E050
:1026C000A516B10420F40E94900D0E949A08DD2006
:1026D000E1F00E947D1980FD18C0F70112820E946E
:1026E00077190E940D18C7010E9491130E94771953
:1026F000DF91CF911F910F91FF90EF90DF90BF90EE
:10270000AF909F908F900C942E18DF91CF911F91D6
:102710000F91FF90EF90DF90BF90AF909F908F90C0
:1027200008950F931F93CF93DF93EC0188819981D4
:102730002B813C81232BB9F09F3F11F48F3F99F0FF
:10274000CE010E94AC08882371F0688179818A816A
:102750000E9454198C010E94AA180E94AC17B8015B
:10276000CE010E94D310DF91CF911F910F91089558
:102770000E94AB190E94BB190E94D7190E94C91E62
:102780000E94231E80E090E00E94C40D80E090E053
:102790000C94DA0D80910201909103010E94761B46
:1027A0000C94B8130E949B190C94CA13E92FE2955C
:1027B000EF70F0E03297EE30F105B0F4E556FF4FE0
:1027C0000C941326803F91F018F4803E68F40EC0FC
:1027D000843F51F40BC0803E48F0813F29F406C08D
:1027E00093FB882780F9089580E0089581E008959B
:1027F0000E9449190E94D6130895CF93DF9300D009
:1028000000D01F92CDB7DEB70F900F900F900F90B2
:102810000F90DF91CF910895CF93DF9300D000D038
:1028200000D0CDB7DEB726960FB6F894DEBF0FBE48
:10283000CDBFDF91CF9108951F93CF93DF93C091C8
:102840005C0216E080915D02C81799F0D0E01C9FF1
:10285000F0011D9FF00D1124E25AFD4F408151817E
:1028600062817381848195810E940C142196C770C6
:10287000E9CFDF91CF911F91089540918E02509141
:102880008F026091900270919102809192029091DA
:1028900093020C940C148091930282958F7009F02E
:1028A00054C080919002882309F44FC080915C024B
:1028B000A0915D0260918E0270918F024091910211
:1028C00050919202B6E08A1709F43FC090E041159A
:1028D0005105C1F17F3F11F46F3FA1F1B89FF001A5
:1028E000B99FF00D1124E25AFD4F218172132AC0C5
:1028F0002081621327C02281211124C023813481C9
:102900002417350710F421503109241B350B283CBE
:102910003105C0F4209193022F702061209393021F
:1029200026E0289FF001299FF00D1124ED59FD4F5D
:1029300080818F70806180838EE892E00E94911385
:102940000C941C1401968770BECF0895CF92DF922D
:10295000EF92FF920F931F93CF93DF93CDB7DEB724
:1029600062970FB6F894DEBF0FBECDBF8C0185E035
:10297000F801DE011D9601900D928A95E1F7D801CC
:102980004C9111965C91119712966C911297139637
:10299000CD90DC90149730918E0270918F028091CF
:1029A000910290919202009709F46BC17F3F19F454
:1029B0003F3F09F466C1E0909002EE2009F4C0C0E8
:1029C00020919302C816D90628F0F601E81BF90BEE
:1029D000CF0104C0809590958C0D9D1DFF24F3942C
:1029E000883C910578F0F12C207F09F0C6C07C2D41
:1029F000D98AC88A89890E94FD138EE892E00E94D4
:102A00009113B1C0822F807F09F046C0751314C0A6
:102A1000341312C0611110C02F70206120939302F3
:102A20000E943D148EE892E00E94911380919302DF
:102A3000D80115968C932EC0CD2819F15F3F11F463
:102A40004F3FF9F0F62E61111CC080915C0220917D
:102A50005D0236E0821709F45AC090E0389FF00119
:102A6000399FF00D1124E25AFD4F7181571306C0B2
:102A70007081471303C07281711103C00196877082
:102A8000E9CFF62E662309F427C180919302816075
:102A900080939302F12C20C1751308C0341306C033
:102AA000611104C080919302D801C3C04D875E8735
:102AB0008D859E856A8B0E94F8136A898823E1F1CF
:102AC0006623D1F120919302822F82958F7090E03E
:102AD000029774F080918E0290918F0298878F8375
:102AE0001986DB86CA862C87CE0107960E94911331
:102AF00086E0F801AEE8B2E001900D928A95E1F728
:102B00000E944B140E943D14FF24F394E5C04D87AE
:102B10005E878D859E850E944919292F22952F70E9
:102B200030E0223031050CF0CBC09F7009F0C5C0F9
:102B3000805E883008F4D0C0C8010E949113E4CFB1
:102B4000C816D90608F453C0F601E81BF90BCF01EB
:102B5000883C910508F450C0F12C7C2DD98AC88A94
:102B600089890E94FD13EEE8F2E086E0DF011D9204
:102B70008A95E9F70E943D14AFC0751314C0341351
:102B800012C0611110C080919302F8018583C801C1
:102B90000E94911386E0EEE8F2E0DF011D928A9533
:102BA000E9F7FE2C99C04D875E878D859E856A8BDF
:102BB0000E94F8136A89882309F4BECF662309F4BA
:102BC000BBCF20919302822F82958F7090E0029765
:102BD0000CF48ECF80918E0290918F029A8389831C
:102BE0001B82DD82CC822E83CE0101967FCF809521
:102BF00090958C0D9D1DACCFF62E662309F49CCFCD
:102C000075132EC034132CC02091930220FD1FC0D9
:102C1000822F82958F70D9F0D80115962C93159735
:102C20008F3049F08F5F982F9295907F822F8F7011
:102C3000892B15968C93C8010E94911386E0F801A8
:102C4000AEE8B2E001900D928A95E1F793CF86E06D
:102C5000F801AEE8B2E001900D928A95E1F73CC030
:102C60004D875E878D859E850E94F813811140CF28
:102C700080919302816080939302C8010E94911316
:102C80002BC0662309F458CF4D875E878D859E85BE
:102C90000E94F813F82E882309F44ECF86E0F8013D
:102CA000AEE8B2E001900D928A95E1F78EE892E0ED
:102CB0000E94250F0E944B145DCF811139CF0CC0AB
:102CC000243031050CF038CF9F7009F431CFF80172
:102CD0009581907F09F02CCF8F2D62960FB6F894D6
:102CE000DEBF0FBECDBFDF91CF911F910F91FF903F
:102CF000EF90DF90CF9008951F93CF93DF93CDB7E0
:102D0000DEB72C970FB6F894DEBF0FBECDBF4F8352
:102D1000588769877A878B879C87CE0107960E94A0
:102D2000A614882369F08F8198852A853B85232BFB
:102D3000F1F19F3F09F063C08F3F09F060C037C0D9
:102D400086E0FE013796DE01119601900D928A957C
:102D5000E1F76F817885EA85FB85309741F17F3F08
:102D600011F46F3F21F120915D0230E0C90101961D
:102D70008770992740915C0250E08417950709F409
:102D800047C069837A83FD83EC8396E0929FD001EC
:102D9000939FB00D1124A25ABD4FFE0131960190B0
:102DA0000D929A95E1F780935D020E941C1416E043
:102DB00080915C0290915D028917C1F1189FC0015A
:102DC0001124825A9D4F0E94A614882379F1E09124
:102DD0005C021E9FF0011124E25AFD4F4081518197
:102DE00062817381848195810E940C1480915C02C0
:102DF00090E001968770992780935C02D9CF4F812C
:102E0000588569857A858B859C850E940C14CFCF67
:102E10000E94D21310925D0210925C02EEE8F2E082
:102E200086E0DF011D928A95E9F7C1CF2C960FB697
:102E3000F894DEBF0FBECDBFDF91CF911F910895F3
:102E4000EF92FF920F931F93CF93DF938C01892B07
:102E500009F46CC0F12CEE24E394E8012196F8010A
:102E60008491843740F4843008F051C0813081F07F
:102E7000823019F15BC0853709F444C0A8F19CE7A2
:102E8000980F903708F052C08F770E94551041C0BC
:102E90000E5F1F4FFE01C49180E28C0F883048F412
:102EA000C7708E2D01C0880FCA95EAF70E94AE192F
:102EB00014C08C2F0E94370F2DC00E5F1F4FFE01D4
:102EC000C49180E28C0F883058F4C7708E2D01C0F9
:102ED000880FCA95EAF70E94B4190E94D7191AC040
:102EE0008C2F0E94551016C00E5F1F4FFE01C4911B
:102EF000CC2381F08FE99FE00197F1F700C000003B
:102F0000C150F6CF0E5F1F4FFE01F49003C00E9428
:102F1000370F8E018F2D882309F49FCFEFE9FFE053
:102F20003197F1F700C000008150F5CFDF91CF91CC
:102F30001F910F91FF90EF90089508950C949D17A5
:102F40000E949E176093CF027093D0028093D102AB
:102F50009093D2020C94B81308950C94A0170F9379
:102F60001F930091CF021091D0022091D102309195
:102F7000D202602B712B822B932B1F910F910C94FB
:102F8000A0170F931F930091CF021091D0022091B0
:102F9000D1023091D20260237123822393231F91A7
:102FA0000F910C94A0170F931F930091CF021091D3
:102FB000D0022091D1023091D2026027712782275E
:102FC00093271F910F910C94A0170C94EB070E946C
:102FD000E5176093CB027093CC028093CD0290935F
:102FE000CE020C94B81360E070E0CB010C94E717AC
:102FF0000F931F9341E050E060E070E08A019B0175
:1030000004C0000F111F221F331F8A95D2F7C90178
:10301000B8011F910F910C94E7170F931F9341E094
:1030200050E060E070E004C0440F551F661F771F3A
:103030008A95D2F78091CB029091CC02A091CD02DB
:10304000B091CE028A019B01082B192B2A2B3B2B16
:10305000C901B8011F910F910C94E7170F931F93AB
:1030600041E050E060E070E004C0440F551F661F6F
:10307000771F8A95D2F7409550956095709580910D
:10308000CB029091CC02A091CD02B091CE028A01E8
:103090009B01082319232A233B23C901B8011F914F
:1030A0000F910C94E7170F931F9341E050E060E0FD
:1030B00070E004C0440F551F661F771F8A95D2F732
:1030C0008091CB029091CC02A091CD02B091CE0222
:1030D0008A019B01082719272A273B27C901B80124
:1030E0001F910F910C94E7170F931F930091CB0240
:1030F0001091CC022091CD023091CE02602B712B29
:10310000822B932B1F910F910C94E7170F931F9312
:103110000091CB021091CC022091CD023091CE02D1
:1031200060237123822393231F910F910C94E7173F
:103130000F931F930091CB021091CC022091CD02EE
:103140003091CE0260277127822793271F910F911C
:103150000C94E7170895292F220F920F990F890FCA
:10316000A82FA695A695A695877051E001C0550F8A
:103170008A95EAF785E0A89FD001112420E030E08D
:1031800070E0F901EA0FFB1FEC56FD4F4081CB01C7
:10319000022E02C0969587950A94E2F781709927CE
:1031A000819584278523842780832F5F3F4F253097
:1031B000310539F70895292F220F920F990F890FA2
:1031C000682F669566956695982F977085E0689F3D
:1031D000B001112440E050E080E0FA01E60FF71F53
:1031E000EC56FD4F208130E0092E02C03695279520
:1031F0000A94E2F721703327042E01C0220F0A94AB
:10320000EAF7822B4F5F5F4F4530510531F7089544
:10321000BF92CF92DF92EF92FF920F931F93CF93C3
:10322000DF938C01C090CF02D090D002E090D10209
:10323000F090D2028091CB029091CC02A091CD026D
:10324000B091CE02C82AD92AEA2AFB2ACFE1D0E0DF
:10325000D701C6010C2E04C0B695A7959795879502
:103260000A94D2F780FF07C0BC2EB8018C2F0E94B1
:103270005F0A019719F4219758F7B12C8B2DDF9134
:10328000CF911F910F91FF90EF90DF90CF90BF9063
:103290000895CF93DF93EC010E940819BE010E94AC
:1032A0005F0ADF91CF9108951F93CF93DF93EB01D6
:1032B00090915902992321F0CB010E94491913C022
:1032C000882349F0CB010E940819182F682FCE01DE
:1032D0000E94AB1804C0CB010E94DB18182FBE015E
:1032E000812F0E945F0ADF91CF911F9108958091F5
:1032F000D30285958595859508958091D302877031
:1033000008959091D302977081E009F480E00895C8
:103310008091F70208959091F702892B8093F7022C
:10332000089580959091F70289238093F70208957C
:103330008093F70208951092F70208959091F60293
:10334000892B8093F602089580959091F602892347
:103350008093F60208951092F60208959091F50276
:10336000892B8093F502089580959091F502892329
:103370008093F50208951092F50208958091D40289
:10338000089508950C94C1199091D402981721F0D2
:103390008093D4020C94C21908958091D40288239A
:1033A00029F01092D40280E00C94C2190895E091A3
:1033B0000201F09103018091F7028083E091020104
:1033C000F091030190818091F602892B8083E09136
:1033D0000201F091030190818091F502892B808395
:1033E0008091D402882381F0E0910201F0910301E1
:1033F0009081892B808380910201909103010E942A
:10340000FB1A81110E94CD19809102019091030154
:103410000C949C0D08950C940A1A98E0899F9001D1
:103420001124262B2093D3020E940D188091D302E1
:103430008595859585950C940B1A1092D30280E0A2
:103440000C940B1A2091D302809582238093D3028F
:10345000982F977079F430E0482F082E000C550B08
:103460002417350739F08595859585950E942E1886
:103470000C941D1A0895CF92DF92EF92FF926C0187
:10348000EE24FF24C114D104E104F10421F0C701AA
:10349000B60120E101C020E0C72ED82EE92EFF247E
:1034A000C114D104E104F10419F0285FC701B60189
:1034B0006B017C0154E0F694E794D794C7945A9535
:1034C000D1F7C114D104E104F10419F02C5FC70154
:1034D000B6016B017C0142E0F694E794D794C7945F
:1034E0004A95D1F7C114D104E104F10419F02E5F1B
:1034F000C701B601DC01CB01B695A79597958795D5
:10350000892B8A2B8B2B09F02F5F822FFF90EF9056
:10351000DF90CF90089580E090E00E94352621E072
:103520008D3E9E4F09F020E0822F089582E090E0CA
:103530000C942D2683E090E00C942D2684E090E0FE
:103540000C942D26682F84E090E00C943B26AB0170
:10355000BC018FE090E00C944D26AB01BC0183E1EF
:1035600090E00C944D2660E070E0CB010C94AD1A15
:1035700060E070E0CB010E94A71A0C94B31A6DEEC4
:103580007EEF80E090E00E94592660E082E090E0CB
:103590000E943B2660E083E090E00E943B26109270
:1035A000CF021092D0021092D1021092D20260E0AB
:1035B00084E090E00E943B2660E085E090E00E947D
:1035C0003B2660E086E090E00E943B266FEF87E0BC
:1035D00090E00E943B2640E050E0BA0188E090E095
:1035E0000E944D2660E08DE090E00E943B260C9406
:1035F000B81A0C94BF1AFC013296809113018823EB
:1036000031F08091320387FF02C09EE101C096E055
:1036100080E0915028F021912223D9F38F5FF9CFD8
:1036200008959C01FC0132969FEF80E0419146177E
:1036300089F09F3F19F4411101C0982F8F5F8630A8
:10364000A9F79F3F39F0F901E90FF11D97FDFA95B0
:10365000628308950895FC0132960896208126130E
:1036600001C010823196E817F907C1F70895262F97
:103670002695269526952E3168F4FC01E20FF11D62
:10368000677021E030E001C0220F6A95EAF782817D
:10369000282B22830895262F2695269526952E31B0
:1036A00070F4FC01E20FF11D677021E030E001C011
:1036B000220F6A95EAF720958281282322830895B4
:1036C00020911301222329F02091320327FD0C942D
:1036D000371B0C94111B20911301222329F02091F8
:1036E000320327FD0C944B1B0C942B1B20911301D0
:1036F000FC013296222331F08091320387FF02C011
:103700008EE101C086E0DF011D928A95E9F70895F8
:1037100008950C94881B0E94891B80913803843083
:1037200049F11092F90220E488E190E00FB6F89494
:10373000A895809360000FBE2093600080E00E94F7
:103740009A080E94891B83B7817F846083BF83B7F7
:10375000816083BF7894889583B78E7F83BF0FB6CF
:10376000F894A89580916000886180936000109221
:1037700060000FBE08950895CF930E941A050E941D
:10378000C3050E94BB1BC0E08C2F0E940B06811159
:1037900004C0CF5FCE30C1F701C081E0CF91089562
:1037A00008950C94D01B0E94D2130E94900D0E9489
:1037B0009A080C94D11B1F920F920FB60F921124EE
:1037C0008F939F93AF93BF938091F902811113C0A0
:1037D00080912E0390912F03A0913003B09131037B
:1037E0004196A11DB11D80932E0390932F03A093AA
:1037F0003003B0933103BF91AF919F918F910F90A0
:103800000FBE0F901F90189582E084BD93E095BD88
:103810009AEF97BD80936E0008952FB7F89480912A
:103820002E0390912F03A0913003B09131032FBF4D
:103830000895CF92DF92EF92FF920F931F932FB7CD
:10384000F89440912E0350912F03609130037091B2
:1038500031032FBF6A017B01EE24FF248C0120E09D
:1038600030E0C016D106E206F30610F441505109CB
:103870009A01281B390BC9011F910F91FF90EF90FE
:10388000DF90CF90089578941F920F920FB60F9209
:1038900011248F939F93AF93BF9380912E039091A8
:1038A0002F03A0913003B09131030196A11DB11DEA
:1038B00080932E0390932F03A0933003B093310392
:1038C000BF91AF919F918F910F900FBE0F901F905E
:1038D0001895F89481E08093E00080E28093D8000E
:1038E000E9ECF0E010828FE19EE40197F1F700C06F
:1038F00000001DBA109268001CBC10BE1FBA1092C6
:103900007A0010926E0010926F0010927100109267
:1039100072001082ECEBF0E0108214B817B81AB8FD
:103920001DB810BA108215B818B81BB81EB811BA55
:103930000C94003F08950E948B1A811102C00E94CE
:10394000F91A0E94961A8093F8020E949E1A90E03B
:1039500090933303809332030E949A1A682F70E089
:1039600080E090E00C94AD178091FD0280FF0BC0C9
:103970006091070185E0689FB001112475956795F6
:10398000759567952BC081FF09C06091070185E09F
:10399000689FB00111247595679520C082FF07C00C
:1039A0006091070185E0689FB001112417C09091D4
:1039B000FE029923D1F060910601961788F72091B5
:1039C000070185E0289F90011124929FA001939FF9
:1039D000500D112470E0CA010E94FF256038710566
:1039E00040F46115710539F002C065E070E0862F82
:1039F00008958FE7089581E008958091FD0280FF8A
:103A000008C06091050170E075956795759567959B
:103A100021C081FF06C06091050170E07595679532
:103A200019C082FF04C06091050170E010C0909140
:103A3000FE029923C1F0609104019617A0F78091CE
:103A40000501899FC001112470E00E94FF256038A4
:103A5000710528F46115710521F0862F08958FE70F
:103A6000089581E0089561E070E0F4CF803F21F493
:103A70000E94B41C819504C0813F29F40E94B41CAB
:103A8000809302030895823F21F40E94B41C819523
:103A900004C0833F29F40E94B41C8093010308955D
:103AA000893F19F40E94FD1C05C08A3F31F40E9431
:103AB000FD1C81958093030308958B3F21F40E94A0
:103AC000FD1C819504C08C3F29F40E94FD1C80934D
:103AD00004030895843F21F480910003816017C09E
:103AE000853F21F480910003826011C0863F21F45C
:103AF0008091000384600BC0873F21F48091000314
:103B0000886005C0883F31F4809100038061809314
:103B1000000308958D3F21F48091FD0281600BC068
:103B20008E3F21F48091FD02826005C08F3F29F411
:103B30008091FD0284608093FD020895803F39F4F6
:103B40008091020387FF6CC01092020369C0813F1D
:103B500029F4809102031816BCF362C0909101030E
:103B6000823F29F497FF5CC01092010359C0833F44
:103B700019F41916CCF354C0893F41F48091030322
:103B800018160CF04DC0109203034AC08A3F29F466
:103B90008091030387FF44C0F6CF8B3F39F48091B7
:103BA000040387FF3DC0109204033AC08C3F29F400
:103BB000809104031816BCF333C0843F21F4809134
:103BC00000038E7F17C0853F21F4809100038D7F15
:103BD00011C0863F21F4809100038B7F0BC0873F8B
:103BE00021F480910003877F05C0883F31F48091E4
:103BF00000038F7E8093000313C08D3F21F48091DA
:103C0000FD028E7F0BC08E3F21F48091FD028D7FDF
:103C100005C08F3F29F48091FD028B7F8093FD02C8
:103C20008091010381110EC08091020381110AC0AD
:103C300080910303811106C080910403811102C0A9
:103C40001092FE0208958FEF92E00E94B60D0E943E
:103C50000D1C9093FB028093FA0208951F93CF935B
:103C6000DF938091FA029091FB020E94191CAC0133
:103C70009091FE02992321F02091080130E006C0C6
:103C80002091FC028AE0289F9001112442175307DB
:103C900008F47BC080910103C0910203D09103031B
:103CA00010910403811107C0C1116BC0D11169C00B
:103CB000111167C06AC09F3F19F09F5F9093FE0289
:103CC000181624F40E94B41C809301038091010310
:103CD00087FF05C00E94B41C8195809301031C16C8
:103CE00024F40E94B41C809302038091020387FF96
:103CF00005C00E94B41C819580930203309101039A
:103D00003323E1F0209102032223C1F045EB340379
:103D1000C0011124892F990F990B009709F481E0B4
:103D20008093010335EB2303C0011124892F990FE0
:103D3000990B009709F481E0809302031D1624F487
:103D40000E94FD1C809303038091030387FF05C03D
:103D50000E94FD1C819580930303111624F40E9498
:103D6000FD1C809304038091040387FF05C00E941B
:103D7000FD1C819580930403DF91CF911F910C94DA
:103D8000231E9F3F09F099CFA1CFDF91CF911F91C3
:103D90000895EFEFF2E086E0DF011D928A95E9F7E2
:103DA0001092FE021092FD0208958091250308955D
:103DB0000F931F93CF93DF9300D01F92CDB7DEB741
:103DC0008C010E944621823011F0843021F584E07C
:103DD00089831B830A8382E08093E9008FEF9091AF
:103DE000E800815095FD06C095ED9A95F1F7000029
:103DF0008111F5CF8091E80085FF0DC040E050E0D3
:103E000063E070E0CE0101960E9463218091E8009A
:103E10008E778093E8000F900F900F90DF91CF91F5
:103E20001F910F910895CF93DF9300D01F92CDB7CC
:103E3000DEB720913803243031F523E02983805800
:103E400091099B838A8382E08093E9008FEF9091B0
:103E5000E800815095FD06C095ED9A95F1F70000B8
:103E60008111F5CF8091E80085FF0DC040E050E062
:103E700063E070E0CE0101960E9463218091E8002A
:103E80008E778093E8000F900F900F90DF91CF9185
:103E90000895CF93DF93EC010E944621823011F008
:103EA0008430F9F482E08093E9009FEF8091E8008C
:103EB000915085FD06C085ED8A95F1F700009111BE
:103EC000F5CF8091E80085FF0CC040E050E066E04F
:103ED00070E0CE010E9463218091E8008E7780938C
:103EE000E800DF91CF910895CF93DF93EC010E941A
:103EF0004621823011F08430D9F580911301882356
:103F000039F08091320387FF03C060E282E002C093
:103F100068E081E08093E9008FEF9091E8008150A4
:103F200095FD06C095ED9A95F1F700008111F5CF4A
:103F30008091E80085FF1CC080911301811105C0AC
:103F400040E050E068E070E003C070E040E050E026
:103F5000CE010E9463218091E8008E778093E80073
:103F600080E2FE01A5E0B3E001900D928A95E1F7B1
:103F7000DF91CF91089580913703811109C00E948C
:103F8000F8220E9455238091E20084608093E20031
:103F90000895109237030895089508950C94D31B43
:103FA00042E061EC81E00E94722242E261EC82E038
:103FB0000C94722280913A03833009F460C030F48B
:103FC000813071F0823009F499C008958A3009F483
:103FD00085C08B3009F46BC0893009F0A7C020C0C0
:103FE00080913903813A09F0A1C08091E800877F70
:103FF0008093E80080913D0390913E03892B21F44A
:1040000060E285E093E003C060E080E090E070E073
:104010000E94AE218091E8008B778093E80008959C
:1040200080913903813209F081C080913D039091E4
:104030003E03029708F07AC08091E800877F809362
:10404000E8008091E80082FD05C08091380381116D
:10405000F8CF6CC02091F3008091F20090E0922B99
:10406000029729F48091F1008B7F813021F48091B7
:10407000F100809325038091E8008B7753C08091F5
:104080003903813A09F052C080913D0390913E037B
:10409000892B09F04BC08091E800877F8093E8006E
:1040A0008091E80080FFFCCF8091130136C08091A1
:1040B00039038132D9F580913D0390913E03892BDC
:1040C000A9F58091E800877F8093E8000E94A722ED
:1040D00080913B03809313010C94D2138091390398
:1040E000813221F58091E800877F8093E8000E946B
:1040F000A72280913C038093260308958091390381
:10410000813AA1F48091E800877F8093E800809154
:10411000E80080FFFCCF809126038093F10080911E
:10412000E8008E778093E8000C94A722089584B766
:10413000877F84BF0FB6F894A8958091600088614E
:1041400080936000109260000FBE80E88093610051
:10415000109261000E94F80D0E94F8220E945523DF
:104160008091E20084608093E20078940E94E425CC
:104170000E94FE0D89E091E00E948B0D8091380332
:10418000853069F40E948B1B809136038823B1F33C
:104190000E94BC1B882391F30E944D21EFCF0E9407
:1041A000040EECCF0C94D420292F33272330310573
:1041B000C9F064F42130310581F02230310509F075
:1041C0004CC08BE390E027E737E04BC0213231054C
:1041D00021F12232310589F140C082E190E022EBE9
:1041E00037E03FC099278130910571F02CF4892B7D
:1041F000A1F5E3E7F7E00DC08230910541F00397A8
:1042000061F5EDE3F7E005C0EBE5F7E002C0E3E4BC
:10421000F7E0849190E09F0124C06115710541F0A1
:1042200061307105D1F489E090E022EA37E019C0ED
:1042300089E090E029E837E014C06115710541F08C
:104240006130710551F480EC90E024EC37E009C056
:1042500080E490E024E838E004C080E090E020E0D2
:1042600030E0FA013183208308950895CF93C82F59
:104270000E943521C0932703CF9108958091380380
:10428000843011F081E0089582E008958091270341
:10429000811102C00C943E21089580E189BD82E124
:1042A00089BD09B400FEFDCF8091D8008F7D809339
:1042B000D8008091E00082608093E0008091E0006F
:1042C00081FDFCCF0895CF92DF92EF92FF920F9382
:1042D0001F93CF93DF93EC018B016A010E94C622EA
:1042E000811133C0C114D10439F0F601808191816C
:1042F000081B190BC80FD91FE12CF12C0115110552
:1043000019F18091E80085FD16C08091E8008E7754
:104310008093E800C114D10449F0F60180819181B5
:10432000E80EF91EF182E08285E00FC00E94C622ED
:10433000882321F30AC089918093F100015011096B
:10434000FFEFEF1AFF0ADACF80E0DF91CF911F91E4
:104350000F91FF90EF90DF90CF90089520913F0351
:10436000309140032617370748F06115710539F47D
:104370002091E8002E772093E80001C0B90140E0C9
:1043800061157105A9F120913803222309F443C076
:10439000253009F442C02091E80023FD40C020915F
:1043A000E80022FD32C02091E80020FFE9CF4091D3
:1043B000F3002091F20030E0342BFC01CF016115B5
:1043C000710559F02830310540F481918093F10056
:1043D000615071092F5F3F4FF1CF41E02830310527
:1043E00009F040E02091E8002E772093E800C8CF44
:1043F0004111C9CF0AC080913803882361F085300C
:1044000061F08091E80083FD0AC08091E80082FF9E
:10441000F2CF80E0089582E0089583E0089581E07E
:10442000089520913F03309140032617370748F045
:104430006115710539F42091E8002E772093E8008A
:1044400001C0B901FC0120E06115710591F1809175
:104450003803882309F440C0853009F43FC08091B7
:10446000E80083FD3DC08091E80082FD2FC080916F
:10447000E80080FFE9CF2091F3008091F20090E006
:10448000922B6115710559F08830910540F4249103
:104490002093F1003196615071090196F2CF21E02D
:1044A000089709F020E08091E8008E778093E8007B
:1044B000CBCF2111CCCF0AC080913803882361F083
:1044C000853061F08091E80083FD0AC08091E800AA
:1044D00082FFF2CF80E0089582E0089583E008959E
:1044E00081E00895982F973058F59093E900981738
:1044F00039F07091EC002091ED005091F00003C074
:10450000242F762F50E021FF19C03091EB003E7F21
:104510003093EB003091ED003D7F3093ED00309112
:10452000EB0031603093EB007093EC002093ED00D2
:104530005093F0002091EE0027FF07C09F5FD3CF7C
:104540008F708093E90081E0089580E00895809164
:10455000390387FF11C08091E80082FD05C080917A
:1045600038038111F8CF11C08091E8008B770BC020
:1045700080913803882349F08091E80080FFF8CFCC
:104580008091E8008E778093E80008952091E40000
:104590003091E50095E64091EC00842F817040FF5A
:1045A00022C08091E80080FD1CC0809138038823E0
:1045B00091F0853091F08091EB0085FD10C0409125
:1045C000E4005091E5004217530729F39A019150F6
:1045D00011F784E0089582E0089583E0089581E072
:1045E000089580E008954091E80042FFDECF0895ED
:1045F0000E9466230E946E23E0EEF0E080818160DD
:104600008083E8EDF0E080818F77808319BCA7ED8F
:10461000B0E08C918E7F8C9380818F7E808310920E
:10462000370308950F931F93CF93DF930E94662360
:104630000E946E23C8EDD0E088818F7788838881BF
:104640008068888388818F7D888319BC10923803A5
:1046500010923403109236031092350300EE10E0EE
:10466000F80180818B7F808388818160888342E02C
:1046700060E080E00E947222E1EEF0E080818E7FB7
:104680008083E2EEF0E080818160808380818860B9
:104690008083F80180818E7F808388818061888318
:1046A000DF91CF911F910F910895E8EDF0E08081A7
:1046B0008F7E8083E7EDF0E080818160808384E0FD
:1046C00082BF81E0809337030C941223E8EDF0E081
:1046D00080818E7F80831092E20008951092DA002C
:1046E0001092E10008951F920F920FB60F921124BD
:1046F0002F933F934F935F936F937F938F939F93EA
:10470000AF93BF93EF93FF938091E10082FF0BC0C3
:104710008091E20082FF07C08091E1008B7F80934F
:10472000E1000E94E3258091DA0080FF1FC08091A4
:10473000D80080FF1BC08091DA008E7F8093DA0062
:104740008091D90080FF0DC080E189BD82E189BDE3
:1047500009B400FEFDCF81E0809338030E94BB1FA7
:1047600005C019BC109238030E94C91F8091E10056
:1047700080FF19C08091E20080FF15C08091E200A7
:104780008E7F8093E2008091E20080618093E2005E
:104790008091D80080628093D80019BC85E0809316
:1047A00038030E94CD1F8091E10084FF30C08091CA
:1047B000E20084FF2CC080E189BD82E189BD09B49B
:1047C00000FEFDCF8091D8008F7D8093D80080912E
:1047D000E1008F7E8093E1008091E2008F7E8093E4
:1047E000E2008091E20081608093E20080913403D6
:1047F000882311F084E007C08091E30087FD02C0A8
:1048000081E001C083E0809338030E94CE1F809135
:10481000E10083FF29C08091E20083FF25C08091E1
:10482000E100877F8093E10082E08093380310925B
:1048300034038091E1008E7F8093E1008091E2005B
:104840008E7F8093E2008091E20080618093E2009D
:1048500042E060E080E00E9472228091F000886077
:104860008093F0000E94CC1FFF91EF91BF91AF9118
:104870009F918F917F916F915F914F913F912F9178
:104880000F900FBE0F901F9018951F920F920FB6AA
:104890000F9211242F933F934F935F936F937F93C6
:1048A0008F939F93AF93BF93CF93DF93EF93FF9338
:1048B000C091E900CF708091EC00D82FD17080FDBD
:1048C000D0E81092E9008091F000877F8093F0009B
:1048D00078940E9489241092E9008091F000886009
:1048E0008093F000CD2BCF70C093E900FF91EF9142
:1048F000DF91CF91BF91AF919F918F917F916F91F8
:104900005F914F913F912F910F900FBE0F901F908D
:1049100018951F93CF93DF93CDB7DEB7AA970FB645
:10492000F894DEBF0FBECDBFE9E3F3E088E08E0F61
:104930009091F10091938E13FBCF0E94DA1F80912A
:10494000E80083FF28C18091390390913A03492FF1
:1049500050E04A30510508F01EC1FA01E755FF4FFB
:104960000C941326803821F0823809F014C108C055
:104970008091350390913603992389F082600FC0AE
:1049800080913D038F70873008F005C18093E90066
:104990008091EB0085FB882780F91092E9009091C7
:1049A000E800977F9093E8008093F1001092F10067
:1049B000D0C0282F2D7F09F0EEC0882319F0823057
:1049C00061F0E9C080913B03813009F0E4C093308D
:1049D00009F080E0809336032EC080913B03811163
:1049E0002AC080913D038F702FEF280F263008F0EA
:1049F000D2C08093E9002091EB0020FF1CC09330CF
:104A000021F48091EB00806214C09091EB009061E2
:104A10009093EB0021E030E0A90102C0440F551F44
:104A20008A95E2F74093EA001092EA008091EB0049
:104A300088608093EB001092E9008091E800877F06
:104A40008093E8000E94A722A6C08111A4C0109103
:104A50003B031F778091E3008078812B8093E300F4
:104A60008091E800877F8093E8000E94A7228091D0
:104A7000E80080FFFCCF8091E30080688093E30032
:104A8000111102C082E001C083E08093380383C02B
:104A90008058823008F07FC080913B0390913C03A6
:104AA0008C3D53E0950779F583E08A838AE2898318
:104AB0004FB7F894DE01139620E03EE051E2E32F79
:104AC000F0E050935700E49120FF03C0E295EF70AF
:104AD0003F5FEF708E2F90E0EA3010F0C79601C074
:104AE000C0968D939D932F5F243149F74FBF8091DE
:104AF000E800877F8093E8006AE270E0CE010196CB
:104B00000E94AE2115C060913D0370913E03AE013D
:104B10004F5F5F4F0E94D220BC01892BE1F1909141
:104B2000E800977F9093E80089819A810E94112282
:104B30008091E8008B778093E8002DC0803859F58C
:104B40008091E800877F8093E80080913403809310
:104B5000F1008091E8008E7773CF81111CC0909195
:104B60003B039230C0F48091E800877F8093E80097
:104B7000909334030E94A72280913403811106C0D0
:104B80008091E30087FD02C081E001C084E0809352
:104B900038030E94D01F8091E80083FF0AC08091F3
:104BA000E800877F8093E8008091EB00806280932B
:104BB000EB00AA960FB6F894DEBF0FBECDBFDF9113
:104BC000CF911F9108950895CF9380913803882342
:104BD000A1F0C091E900CF709091EC00892F817015
:104BE00090FD80E8C82B1092E9008091E80083FDD9
:104BF0000E948924CF70C093E900CF91089597FB5C
:104C0000072E16F4009407D077FD09D00E941926CC
:104C100007FC05D03EF4909581959F4F08957095BF
:104C200061957F4F0895EE0FFF1F0590F491E02DE1
:104C30000994AA1BBB1B51E107C0AA1FBB1FA617E3
:104C4000B70710F0A61BB70B881F991F5A95A9F735
:104C500080959095BC01CD010895F999FECF92BD44
:104C600081BDF89A992780B50895A8E1B0E042E0A7
:104C700050E00C946126262FF999FECF92BD81BD9C
:104C8000F89A019700B4021639F01FBA20BD0FB68A
:104C9000F894FA9AF99A0FBE08950396272F0E9466
:104CA0003C260E943B26252F0E943C26242F0C9454
:104CB0003C260196272F0E943C260C943B26DC01C3
:104CC000CB01FC01F999FECF06C0F2BDE1BDF89A17
:104CD000319600B40D9241505040B8F70895F894C1
:024CE000FFCF04
:104CE2002000D50228083C0714D51E741F491F1343
:104CF2001FD81E01000D010D020D030D040D050D3F
:104D0200000C010C020C030C040C050C000B010B33
:104D1200020B030B040B050B000A010A020A030A29
:104D2200040A050A0009010902090309040905091F
:104D32000008010802080308040805080007010723
:104D42000207030704070507000601060206030619
:104D5200040605060005010502050305040505050F
:104D62000004010402040304040405040003010313
:104D72000203030304030503000201020202030209
:104D820004020502000101010201030104010501FF
:0C4D920000000100020003000400050006
:00000001FF
